:100000000C942A000C9434000C9434000C943400AA
:100010000C9434000C9434000C9434000C94340090
:100020000C9434000C9434000C9434000C94340080
:100030000C9434000C9434000C9434000C94340070
:100040000C9434000C9434000C9434000C94340060
:100050000C94340011241FBECFE5D4E0DEBFCDBF29
:100060000E9481000C9493000C9400008F3E910537
:1000700049F150F48F3B910569F18F3D910531F1C4
:100080008F37910571F52AC08B3F910599F020F4C7
:10009000873F910599F025C08D3F910539F08E3F3E
:1000A0009105F9F481E08ABB8BBB1BC082E08ABB5F
:1000B0008BBB17C084E08ABB8BBB13C088E08ABBB4
:1000C0008BBB0FC080E18ABB8BBB0BC080E28ABBBD
:1000D0008BBB07C080E48ABB8BBB03C080E88ABBB4
:1000E0008BBBB09B0BC02FEF81EE94E02150804082
:1000F0009040E1F700C00000B099F5CF1ABA15BAE8
:10010000089591E094BB1ABA8FEF8BBB17BA98BBD6
:1001100084BBC1E089B38F3FE9F389B3C5BB90E0ED
:0A0120000E943600F7CFF894FFCFDD
:00000001FF
